:100000000C94DA030C9402040C9402040C94020481
:100010000C94E10A0C9402040C9402040C94020463
:100020000C9402040C9402040C9402040C94020438
:100030000C9487180C94E7170C9431190C94020453
:100040000C9402040C9402040C948F230C9402046C
:100050000C94E5210C9417220C9402040C940204D5
:100060000C9402040C9402040C94871F0C94020458
:1000700074118C11A411AA11CE11D111D411D71160
:10008000F811EA12ED12F01206130A130C130E13F4
:1000900010131213141301130413FE121613FB1280
:1000A00019131C131F1322132E1321007F22000784
:1000B000AED580A83FD300408D142000A1C8DA122D
:1000C00081CFD9F1DB40A4A6AF2402D70000000005
:1000D00000000000000000FE01EC01C1019F01854D
:1000E000016B014B0136011201EB0044F8FCFE8E5E
:1000F0008707448EFEFCF80182034107830E488E79
:10010000CEEEFEFF7F3F0702831C461E1F0F070334
:10011000010444F8FCFE8E8707448EFEFCF844E0A0
:10012000F1FB3F870E443FFBF1E04403070F0E87CE
:100130001C440E0F070388074787C7E7F77F3F1F59
:100140000641FEC282010406831F0644F8FCFE0E2F
:100150008707440E3E3C38C3880E441CFCF8F0442C
:1001600003070F0E871C440E0F0703C388C782873F
:100170008207838188014103C34403070F0E871C54
:10018000440E0F0703024780C0E0F0783C1EC30313
:10019000457E7F7F73718470C3837009831F03441E
:1001A000383C3E0E87074406FEFCF8838004840E2C
:1001B000443FFFF1E04403070F0E871C440E0F0776
:1001C0000344383C3E0E87074406FEFCF8034C808F
:1001D000C0E0F0783C1E0F07030100421C1E831F85
:1001E000411D891C1C1C1C1C1C1C1C1C0343080CD2
:1001F0000EC30606C30603831C831F831C0344F837
:10020000FCFE0E85074687C7EEFEFCF8C348E0708B
:10021000381C0E07030101C34403070F0E871C445B
:100220000E0F0703DC02CD02B802A3029302810283
:100230006D0260024C023802433C7EE784C343E710
:10024000FEFC02823046381C0E070301433CFEE7E9
:1002500084C343E7FE3C430F1F39843043391F0FEB
:10026000840346C3E3733B1F0F04823F0443FCFE39
:10027000C784C343C78E0C430F1F38843043391FD4
:100280000F823F85334373E3C3430C1C38843043F0
:10029000381F0F46C0E070381C0EC2028603443F70
:1002A0003F03034A0C0E070303C3C3C7FE3C430CC2
:1002B0001C38843043381F0F4A0C0E07030383C3D6
:1002C000E77E3C4730383C3E373331833002420CC6
:1002D0000EC204024630303F3F3030024AFCFE0777
:1002E00083C3E3733FFEFC4A0F1F3F333130303886
:1002F0001F0F000000000000005F00000007000763
:10030000007F7F7F7F7F242A7F2A12231308646265
:1003100036495620500008070300001C2241000007
:1003200041221C002A1C7F1C2A08083E0808008065
:10033000703000080808080800400000002010087D
:1003400004023E5149453E00427F400072494949FE
:10035000462141494D331814127F10274545453930
:100360003C4A494931412111090736494949364634
:100370004949291E00140000000040340000081CF8
:1003800036634114141414144163361C08020159D5
:1003900009063E415D594E7C1211127C7F49494944
:1003A000363E414141227F4141413E7F49494941D9
:1003B0007F090909013E414151737F0808087F0008
:1003C000417F41002040413F017F081422417F408E
:1003D0004040407F021C027F7F0408107F3E414165
:1003E000413E7F090909063E4151215E7F091929D5
:1003F00046264949493203017F01033F4040403FBF
:100400001F2040201F3F4038403F631408146303FF
:10041000047804036159494D43007F41414102047E
:10042000081020004141417F040201020440404085
:100430004040081C3E1C0820545478407F28444407
:10044000383844444428384444287F385454541895
:1004500000087E090218A4A49C787F080404780090
:10046000447D40002040403D007F10284400004172
:100470007F40007C047804787C0804047838444485
:100480004438FC1824241818242418FC7C0804047C
:1004900008485454542404043F44243C4040207CE5
:1004A0001C2040201C3C4030403C44281028444C38
:1004B0009090907C4464544C440008364100000005
:1004C0007700000041360800080408100802050201
:1004D00000000E1111110EB305D305CB05D305A5F0
:1004E000059D0598058E0585057F0577056C0557E3
:1004F0000551054805400530052B0525051E05134A
:10050000050B050505537461636B00466C69636BED
:100510006572005761766520526163657200436CB5
:100520006F75647300436F6D657400506F6E670084
:100530005261696E626F7720476C697474657200EE
:100540005261696E626F7700537065637472756D86
:1005500000576F6E6B6100313934307350737963BB
:10056000686564656C69635275736800576869747F
:10057000652057617665005365697A757265004A32
:100580006F6B657200536B6974746C6573004163C3
:100590006964205261696E0046616465004C616E59
:1005A0007465726E00546F72636800E905D305BF0D
:1005B00005B3052F4272696768746E657373002F07
:1005C000416E696D6174696F6E73003C2D2042410C
:1005D000434B002D2D2D2D2D2D2D2D2D2D2D2D2D44
:1005E0002D2D2D2D2D2D2D2D002F00000000000074
:1005F00000330000006600000099000000CC0000FD
:1006000000FF000033FF000066FF000099FF0000BC
:10061000CCFF0000FFFF0033FFFF0066FFFF0099E3
:10062000FFFF00CCFFFF00FFFFFF00AB0055007C89
:100630000084004B00B5001B00E5000017E8000037
:1006400047B8000077AB0000ABAB000055AB000033
:1006500022DD000E00F2003E00C20071008F00A1FA
:10066000005F00D0002F00F90700000000FF00002D
:100670000000000055AB000000000000ABAB000024
:1006800000000000FF00000000000055AB0000006B
:10069000000000FF00000000000000AB005500005B
:1006A0000000005500AB00000000000000FF00004B
:1006B0002AD5000055AB00007FAB0000ABAB0000BB
:1006C000D5560000FF00002AD5000055AB0000AA57
:1006D000560000FF000000D5002A00AB0055008145
:1006E000007F005500AB002B00D500FF0000008B01
:1006F0000000008B0000008B0000008B0000008BCE
:100700000000008B0000008B000000FF0000008B49
:10071000000000EBCE8700EBCE8700E6D8AD00FFEF
:10072000FFFF00E6D8AD00EBCE870000000001021D
:1007300000000000000000040308070000000000A3
:10074000000000000000000000000001020408108A
:10075000204080010204081020408001020408109B
:1007600020408080402010080402010202020202A0
:100770000202020404040404040404030303030344
:100780000303030101010101010101000020002315
:10079000002600290000002200250028002B000070
:1007A000002100240027002A0000DC16B81DDF21EC
:1007B0004722FC1611241FBECFEFD0E1DEBFCDBF14
:1007C00012E0A0E0B1E0E8ECF5E502C005900D9282
:1007D000A632B107D9F725E0A6E2B2E001C01D922A
:1007E000A53CB207E1F713E0C9EDD3E004C02197BF
:1007F000FE010E94AF27C53DD107C9F70E947622AE
:100800000C94D72A0C940000FC0181E080831182B3
:1008100083EC9BEAA6E7BBE382839383A483B5833F
:1008200088ED9BE6A6E7BBE386839783A087B18725
:1008300082EF94EEA4E6BBE382879387A487B58713
:100840000895CF93DF93D62FC42F63E570E089EC32
:1008500094E00E9460216D2F89EC94E00E940D21AC
:100860006C2F89EC94E00E940D2189EC94E0DF91DB
:10087000CF910C94DC21CF93DF93EC0189EC94E0D1
:100880000E944C2140E06DE2CE010E94210440E133
:100890006DE2CE010E94210448E06DE2CE01DF91BD
:1008A000CF910C942104AF92BF92CF92DF92EF923E
:1008B000FF920F931F93CF93DF938C01C62F7A0182
:1008C000690163E570E089EC94E00E9460216C2F7F
:1008D00089EC94E00E940D2189EC94E00E94DC21D7
:1008E00063E570E089EC94E00E946021A70163E574
:1008F00070E089EC94E00E94D921E6015E01AC1819
:10090000BD0889EC94E00E94B420892B31F089EC79
:1009100094E00E94BC208993F1CFEA14FB0421F0FB
:10092000F801108281E0818389EC94E0DF91CF911E
:100930001F910F91FF90EF90DF90CF90BF90AF90FD
:100940000C94DC21CF92DF92EF92FF920F931F93D2
:10095000CF93DF93EC016B017A0189019C01225F47
:100960003F4F46E050E062E30E9453048E859F852E
:10097000F6019183808388899989F7019183808327
:100980008A899B89F80191838083DF91CF911F91A0
:100990000F91FF90EF90DF90CF9008950895FC01A4
:1009A00084A98823B9F08381613011F48F5F03C07B
:1009B000623011F48150838383899381891710F405
:1009C00091E093839381911101C083836330C1F4DB
:1009D00083810895623049F480911B018D3018F4B1
:1009E00010921B010DC08C5009C0613049F48091F8
:1009F0001B01843F10F08FEF01C0845F80931B01C7
:100A0000CF010190F081E02D0190F081E02D09955A
:100A100008950C948722EF92FF920F931F93CF9328
:100A2000DF93EB018A01FA0101900020E9F7319789
:100A30007F01E41AF50AFB0101900020E9F7AF01FC
:100A4000461B570BCB018E0D9F1D0E94742AF80187
:100A5000E00EF11EEE15FF0519F081918993FACF92
:100A6000DF91CF911F910F91FF90EF9008958F929A
:100A70009F92AF92BF92CF92DF92EF92FF920F932D
:100A80001F93CF93DF93EC014C0184E0880E911CFF
:100A9000C4010E948C0660911B0170E080E090E030
:100AA0001F921F921F9225E12F93A12CB12C65015B
:100AB000E12CF12C8701EA9420E030E0A9010E94AA
:100AC0007A256EAB40E060E0C4010E94BF068E0153
:100AD0000C5E1F4F66E072E0C8010E94912A0F90E1
:100AE0000F900F900F90F12C8EA9F81638F463E256
:100AF00071E0C8010E94862AF394F6CFB801C401C0
:100B00000E942F0640E061E0C4010E94BF06E09110
:100B10001901F0911A0165917491C8010E94642A2B
:100B2000B801C4010E942F068B81482F50E02A890A
:100B300030E0FA013197B9016B5F7F4F6E177F0785
:100B400014F4865004C02417350714F081508A8BA2
:100B5000DB882A898D2D90E0821B910904971CF473
:100B6000D394D21A02C095E0D92EC12C40E062E0A5
:100B70006C0DC4010E94BF06EC2CF12C8A89F70190
:100B8000E80FF11D3196EE0FFF1F80911901909132
:100B90001A01E80FF91F65917491C8010E94642A37
:100BA00040911701509118018091190190911A01FB
:100BB0002A8948175907E9F48DA990E00197821B0B
:100BC0009109E816F906A9F445E251E0B801CE0111
:100BD0000E940B05B801C4010E942F068B8990E08A
:100BE0000197E816F906B1F0C394DC1408F0BECF03
:100BF00011C08B8190E00197821B9109E816F906DC
:100C000019F44FE151E0E2CF8B89C81638F741E281
:100C100051E0DCCFDF91CF911F910F91FF90EF90CA
:100C2000DF90CF90BF90AF909F908F90089580E01D
:100C300090E008950895FC018485811104C089EC39
:100C400094E00C94DC210895CF93DF93EC0189ECC0
:100C500094E00E94DC211A86DF91CF910895FB0178
:100C600001900020E9F73197AF01461B570BDC01DB
:100C7000ED91FC910280F381E02D09941F93CF93B5
:100C8000DF93EC01162F8A85882311F08F3181F4D0
:100C90001A8689EC94E00E94DC216CE370E089EC18
:100CA00094E00E9460216B8589EC94E00E940D2104
:100CB000612F89EC94E00E940D218A858F5F8A87DD
:100CC000DF91CF911F9108950F931F93CF93DF93DF
:100CD000EC011C821D8281E08E838F8389EC94E07D
:100CE0000E944C211C868CE08093B8001A861B86DB
:100CF00000EB10E0F8016491CE010E943E060F5F08
:100D00001F4FF0E0093C1F07A9F7CE01DF91CF91FB
:100D10001F910F910C941B06EF92FF920F931F935C
:100D2000CF93DF93EC011A861B860AEA10E080EB72
:100D3000E82E80E0F82EF8016491CE010E943E0674
:100D40000F5F1F4FE016F106B1F7CE010E94240697
:100D500080E48B8700E014E060E0CE010E943E0654
:100D600001501109C9F7CE010E941B061C821D8289
:100D7000DF91CF911F910F91FF90EF900895CF9346
:100D8000DF93EC0167706D83842F8F778C831A86D5
:100D90001B86642F6F70CE010E943E066C816595A4
:100DA0006595659565956061CE010E943E066D81F1
:100DB000606BCE010E943E06CE01DF91CF910C9474
:100DC0001B06CF92DF92EF92FF920F931F93CF9368
:100DD000DF938C017A01EB016B01C40ED51ECC159B
:100DE000DD05D1F069916A3061F4D80115966C91F6
:100DF000159716968C91680F40E0C8010E94BF06B7
:100E0000EECF6D3061F3D801ED91FC910190F0814E
:100E1000E02DC8010995E3CFC701DF91CF911F9164
:100E20000F91FF90EF90DF90CF9008953F924F92F7
:100E30005F926F927F928F929F92AF92BF92CF926A
:100E4000DF92EF92FF920F931F93CF93DF936D305A
:100E500009F44CC1262FEC011E816A3021F46D810A
:100E6000610F40E06FC06E3211F06A3319F453E045
:100E7000E52E02C045E0E42E0C81822F90E0113077
:100E800069F50B5F0C83809725E0289F8001299FDF
:100E9000100D11241A8680E48B87C12CD12CF80107
:100EA000EC0DFD1DEE50FD4F6491CE010E943E06FB
:100EB0002FEFC21AD20ACE1490F310E08F811817C8
:100EC00048F48C818F5F8C8360E0CE010E943E06E7
:100ED0001F5FF4CFCE010E941B0608C12053DD80A6
:100EE0002A3008F033C0E12FF0E0EE0FFF1F9F0122
:100EF0002B533F4FF90145915491452B39F1F9019D
:100F000025913491FC01F097EE0FFF1FE20FF31FC4
:100F1000E590F490812E880C880C810E183009F42D
:100F200017E0912C20E4622E91128BC0CE010E941A
:100F30001B064E81842F880F880F480F040F4F81A6
:100F4000400F6D2DCE010E94BF06D0C0809725E0D6
:100F5000289F5001299FB00C1124C12CF12C55243D
:100F6000539490E4692E1E81F11608F060C08C2D18
:100F7000612F0E943A27752C01C0770C8A95EAF7F9
:100F8000F7E01F9FC00111248C199109612F70E0B7
:100F90000E945A278111182FFF2031F0402F6F2D0A
:100FA0006D0DCE010E94BF061A866B86812C912C96
:100FB000F401EA0DFB1DEE50FD4FE4914E81212F0F
:100FC000372D81E0412C6E2F6323522F541B922F1B
:100FD000252F9517D1F36111482A880F915029F4D4
:100FE000330F882321F0242FEECF8111F1CF312C44
:100FF0008E81381630F4642DCE010E943E06339463
:10100000F7CF2FEF821A920A8E1490F28D858111FC
:101010000AC010E08F81181730F460E0CE010E9402
:101020003E061F5FF7CFF39488E0C80E9CCFCE0139
:101030000E941B068E814F81400FE89E400D1124B7
:1010400080CF992031F0402F692D6D0DCE010E9487
:10105000BF061A866B86712C781408F038C05701C9
:101060008FEFA81AB80AF7019491892F807C9F739B
:10107000C92E803479F4F501512C5C1419F17F01EB
:101080002FEFE21AF20A6491CE010E943E065394B9
:10109000F701F3CF882349F0803C49F082E0E80E65
:1010A000F11CF5015490570104C0512C02C0552485
:1010B0005A94F12CFC1441F0652DCE010E943E069D
:1010C000F394F8CFAC0CB11C7C0C7501C5CF8D85A9
:1010D00081110AC0C12C8F81C81630F460E0CE01A6
:1010E0000E943E06C394F7CF93941ECF81E090E018
:1010F000DF91CF911F910F91FF90EF90DF90CF90F4
:10110000BF90AF909F908F907F906F905F904F9027
:101110003F900895CF93DF93EC011A861B860E94BF
:101120003E06CE01DF91CF910C941B06CF93DF9347
:10113000EC01862F69834A8360E00E94AA2460E064
:101140008A810E94AA2461E089810E94E62461E0EC
:101150008A810E94E6241882DF91CF9108950F932F
:101160001F93CF93DF93EC018A810E9415258C0198
:1011700089810E941525E881EF70000F111F802BD7
:1011800094E0E99FF0011124E858FE4FE80FF11DAB
:10119000808188838073DF91CF911F910F91089593
:1011A0009C01AB01869FC001379FD001BC01CD01DE
:1011B000E0E0349F700D811D9E1F259F700D811DE5
:1011C0009E1F1124089540911D0150911E0125E09C
:1011D00038E0429FC001439F900D529F900D112413
:1011E000875E994C90931E0180931D01890F08958D
:1011F000BC019C013F73369527953695279536950A
:10120000279576FF06C08FEF97E0AC01421B530B8A
:101210009A01E32FEE0FEE0FF0E0ED55FE4F408107
:101220005181332735952795E281E29FC001E39FE5
:10123000900D1124840F951F77FF03C09195819520
:1012400091090895FC01858596850895CF93DF93D4
:1012500000D000D000D0CDB7DEB7AB011C821D821C
:101260001E82DC01ED91FC910190F081E02D19824C
:101270001A821B829E012F5F3F4FBE016C5F7F4F22
:10128000099526960FB6F894DEBF0FBECDBFDF914D
:10129000CF91089580E991E008950C9A0895FC019A
:1012A000DB013C912081230F08F42FEF208311965E
:1012B0003C9111972181230F08F42FEF218312967F
:1012C0003C912281230F08F42FEF22830895CF93BE
:1012D000DF93EB01DC0120E030E0FE01E20FF31FC1
:1012E00045915591659174916C9311965C9311970A
:1012F00012964C9312972C5F3F4F13962034310572
:1013000061F7DF91CF910895FC0160810C94751C09
:1013100098EE980F983068F0883080F020EF280F12
:10132000283088F028EF280F283090F4E3E7F0E029
:1013300011C0EBE6F0E0ABE6B0E011C0ECE6F0E0A7
:10134000ACE6B0E00CC0EDE6F0E0ADE6B0E007C022
:10135000E0E0F0E0283008F471C0A0E0B0E02C91AB
:10136000983080F4AFE1B0E0A81BB10941E050E053
:1013700060E070E004C0440F551F661F771FAA95F8
:10138000D2F72CC0883068F441E050E060E070E0B3
:10139000082E04C0440F551F661F771F0A94D2F70A
:1013A0001DC030EF380F383030F441E050E060E0DD
:1013B00070E030EF09C038EF380F383070F441E09A
:1013C00050E060E070E038EF380F04C0440F551F64
:1013D000661F771F3A95D2F701C041E0422B408348
:1013E0003BB3983050F0883050F020EF280F283071
:1013F00040F028EF280F283030F021E005C022E02F
:1014000003C024E001C028E0232B2BBB20916800FF
:10141000983078F0883048F090EF980F983038F096
:101420008850883030F488E005C082E003C084E052
:1014300001C081E0822B809368000895A3E7B0E0AB
:101440008ECF1F93CF93DF9363E876E080E090E048
:101450000E94401764E971E08FE893E00E94D32274
:101460008EE10E9488098DE10E94880961E087E190
:101470000E94AA2462E08CE10E94AA2480916A0260
:10148000811145C010927502109274028FEF809303
:1014900078028093790280937A0280937B02809312
:1014A0007C0280937D0281E080937E021092800214
:1014B00010927F02109277021092760280914C0473
:1014C00090914D04892B31F482E792E090934D0482
:1014D00080934C04E0914A04F0914B04309721F042
:1014E00082E792E09583848382E792E090934B04B5
:1014F00080934A04109282021092810282ED91E060
:10150000909373028093720281E080936A0220E0DC
:1015100030E047E350E062ED72E082E792E00E9443
:101520007A1D6BEE75E082EA92E00E946709809175
:101530001B0180934E048BE793E00E943B0487E3FA
:1015400090E00E948522EC0186EC91E099838883EB
:101550001F821E8280E791E09D838C83CE010496DA
:101560000E94640611E01B838DED94E090931A01B4
:101570008093190183E18B8B84E691E099838883C2
:10158000D0939E02C0939D0280911C018DABCE0131
:101590000E9437051093990280E197E29093980298
:1015A000809397020E94D92360930C0170930D01E0
:1015B00080930E0190930F017894DF91CF911F914A
:1015C00008951F920F920FB60F9211240F931F933D
:1015D0002F933F934F935F936F937F938F939F933B
:1015E000AF93BF93CF93EF93FF930E94D923609360
:1015F0000C0170930D0180930E0190930F0181E017
:101600008093990288E793E00E94AF08C82F009169
:101610009D0210919E028CE10E94152521E0892BEC
:1016200009F020E0F80124AB81E080939402CC2300
:1016300039F0C03219F0C03119F482E08093770399
:10164000FF91EF91CF91BF91AF919F918F917F913A
:101650006F915F914F913F912F911F910F910F903B
:101660000FBE0F901F901895E2EDF2E010821182EC
:101670001282339683E0E737F807C1F708959F9207
:10168000AF92BF92CF92DF92EF92FF920F931F9390
:10169000CF93DF93CDB7DEB7EC970FB6F894DEBFEC
:1016A0000FBECDBF80919A02882309F44BC0809170
:1016B00060028F5F8093600289831FEF1A8380EC42
:1016C0008B83BE01665C7F4FCE0101960E94BC1DDC
:1016D00080916002898380E88A831B83BE01695CF4
:1016E0007F4FCE0101960E94BC1D19AB1AAB1BABFC
:1016F0001CAA1DAA1EAACE01C1967C018E01095CFE
:101700001F4F9E01265C3F4FAE014C5C5F4F60E176
:1017100070E0C0970E94921A40E350E0BE016F5FF4
:101720007F4F82EA92E00E947C1E69E2C62E62E050
:10173000D62E70E6E72E72E0F72E8601E7E3AE2E96
:10174000B12C47C0809110018F3F99F46BEE75E08A
:1017500082EA92E00E9467090E94422920911D01BD
:1017600030911E01620F731F70931E0160931D0163
:10177000DCCF89831FEF1A8380EC8B83BE01665C0C
:101780007F4FCE0101960E94BC1D8091100189837C
:1017900080E88A831B83BE01695C7F4FCE0101967E
:1017A0000E94BC1D19AB1AAB1BAB1CAA1DAA1EAA1A
:1017B000FE01F1967F018E01095C1F4F9E01265CA0
:1017C0003F4FAE014C5C5F4F60E170E0CE0101968F
:1017D000A1CF80911501FAE08F9FC0011124B501BE
:1017E0000E945A2752E0952E960E0E94E308899D8A
:1017F000B0011124F8012081271B08F420E0219377
:101800008F01EE16FF0629F7EEE5F2E003E010E0A7
:101810008081229190E0820F911D820F911DB8016D
:101820000E945A276283CE16DF0691F70E94E308D2
:10183000909116018917D0F40E94E308F7E08F9F7A
:10184000C0011124092F112707FD1A950E94E308F2
:101850002FE5829FC001112430EA390FF801E75DBE
:10186000FD4F2081230F08F42FEF2083E12CF12C72
:1018700010EF36E3A32EB12CF60141916F01419F89
:10188000040E40E0411D112401E02FEF62EA72E0F6
:10189000CE0101960E944A1B80911401882321F0F9
:1018A000F501EE19FF0901C0F701CF01880F991F5B
:1018B000E80FF91FEE52FD4F898180838A81818371
:1018C0008B818283FFEFEF1AFF0A27E3E216F10410
:1018D00099F6EC960FB6F894DEBF0FBECDBFDF9140
:1018E000CF911F910F91FF90EF90DF90CF90BF901D
:1018F000AF909F900895CF93DF9300D01F92CDB704
:10190000DEB78FEF89838A838B83AE014F5F5F4F92
:1019100067E370E082ED92E00E94A6190F900F90AD
:101920000F90DF91CF9108950F931F93CF93DF9383
:1019300000D000D000D0CDB7DEB744E167E370E05F
:1019400082ED92E00E94481B0E94D9239B01AC01CA
:1019500060E078E38EE090E00E942A270E94F80879
:1019600067E370E090580E94D0088C018091A0023B
:101970008C838FEF8D8380EC8E83BE016F5F7F4FF2
:10198000CE0104960E94BC1DC801880F991F800FCC
:10199000911FBE016F5F7F4F8E529D4F0E944F0976
:1019A00026960FB6F894DEBF0FBECDBFDF91CF9164
:1019B0001F910F910895DF92EF92FF920F931F9363
:1019C000CF93DF9300D000D000D0CDB7DEB744E195
:1019D00067E370E082ED92E00E94481B07E010E0B0
:1019E000F12C48ECE42EDD24DA94FC82ED82DE82D8
:1019F000BE016F5F7F4FCE0104960E94BC1D0E9406
:101A0000D9239B01AC01A8E1B1E00E94CB279B0147
:101A1000AC01B02FA0E00E94CB270E94F80867E33A
:101A200070E090580E94D0082981FC01EE0FFF1F42
:101A3000DF01A80FB91FAE52BD4F3C91321708F419
:101A40002C932A81DF01A80FB91FAE52BD4F11960A
:101A50003C911197321710F411962C932B818E0F15
:101A60009F1FFC01EE52FD4F8281821708F42283F2
:101A700080E2F80E0F5F1F4F0F30110509F0B5CF50
:101A800026960FB6F894DEBF0FBECDBFDF91CF9183
:101A90001F910F91FF90EF90DF9008951F93CF93C8
:101AA000DF93CDB7DEB7E6970FB6F894DEBF0FBE73
:101AB000CDBF80EC89831FEF1A831B83BE016C5C52
:101AC0007F4FCE0101960E94BC1D80E689831A8358
:101AD0001B83BE016F5C7F4FCE0101960E94BC1D2F
:101AE00059A959834AA94A833BA93B835C834D8307
:101AF0003E831F82188619861A861B861C862CA98F
:101B00002D879DA99E878EA98F87288B998B8A8B7D
:101B10001B8A1C8A1D8A1E8A1F8A188E598F4A8F1B
:101B20003B8F5C8F4D8F3E8F1F8E18A219A21AA279
:101B30001BA21CA22DA39EA38FA328A799A78AA7A7
:101B40001BA61CA61DA61EA61FA618AA40E350E0B1
:101B5000BE016F5F7F4F82EA92E00E947C1EE69694
:101B60000FB6F894DEBF0FBECDBFDF91CF911F91AE
:101B70000895CF93DF9300D01F92CDB7DEB71982BF
:101B80001A821B82AE014F5F5F4F60E170E082EA14
:101B900092E00E94A619E2EAF2E08FEF808381834F
:101BA0008283848785878687808F818F828F84A3B5
:101BB00085A386A30F900F900F90DF91CF9108958A
:101BC000EF92FF920F931F93CF93DF9300D01F925A
:101BD000CDB7DEB702EA12E0EE24EA940E94E308F1
:101BE000F82E0E94E3088983EA82FB82B801CE01C5
:101BF00001960E94BC1D0D5F1F4F82E0023D180739
:101C000069F742E350E060E070E08EE494E00E9407
:101C10000C1D0F900F900F90DF91CF911F910F919E
:101C2000FF90EF9008950F931F93CF93DF9300D011
:101C300000D000D0CDB7DEB74AE067E370E082EDB8
:101C400092E00E94481B20911D0130911E0185E009
:101C500098E0289F8001299F100D389F100D1124B6
:101C6000075E194C10931E0100931D010E94E308AA
:101C700020E4829FC00111248091A002890F8C83EF
:101C800088EC8D838FEF8E83BE016F5F7F4FCE0117
:101C900004960E94BC1D9801A7E3B0E00E94B527FE
:101CA000AA27BB279C01220F331F820F931FBE015F
:101CB0006F5F7F4F8E529D4F0E944F0926960FB641
:101CC000F894DEBF0FBECDBFDF91CF911F910F9172
:101CD0000895CF92DF92EF92FF920F931F93CF93CD
:101CE000DF9300D01F92CDB7DEB7182F809114017B
:101CF000811124C024E7E22E23E0F22E3FECC32E14
:101D000032E0D32E0091A10220911B01412F62EA03
:101D100072E0CE0101960E944A1B8981F7018083FF
:101D20008A8181838B81828380911201180FF3E075
:101D3000EF1AF108CE14DF0429F723C082EDE82E54
:101D400082E0F82E97E7C92E93E0D92E0091A102E8
:101D500020911B01412F62EA72E0CE0101960E94A0
:101D60004A1B8981F70180838A8181838B818283E9
:101D700080911201180FF3E0EF0EF11CCE14DF0476
:101D800029F70F900F900F90DF91CF911F910F9136
:101D9000FF90EF90DF90CF9008956BEE76E082EAAF
:101DA00092E00E94670981E08093A102809128025D
:101DB0008F5F809328020C94690E811103C06BEA37
:101DC00076E028C0813039F46BE676E082EA92E072
:101DD0000E94670913C0823019F46BE676E01AC0DE
:101DE000833019F40E944E0D19C0843019F40E94FA
:101DF000E00D14C0853029F40E94B90D1092A102A3
:101E000010C0863019F40E94B90D08C0873049F41B
:101E10006BE276E082EA92E00E94670981E08093BB
:101E2000A102809127028F5F809327020E94690E92
:101E30004AE050E060E070E08EE494E00C940C1D09
:101E4000E2EDF2E03AEF2081239F020E20E0211D17
:101E500020832181239F020E20E0211D21832281E6
:101E6000239F020E20E0211D22831124339683E05C
:101E7000E737F80741F708951F93CF93DF9300D01A
:101E80001F92CDB7DEB7182F0E94E308811748F5DF
:101E90008FEF89838A838B8340911D0150911E01AE
:101EA00085E098E0489F9001499F300D589F300D84
:101EB0001124275E394C30931E0120931D01A7E3A6
:101EC000B0E00E94B527AA27BB279C01220F331F31
:101ED000820F931FBE016F5F7F4F8E529D4F0E94F6
:101EE0004F090F900F900F90DF91CF911F910895A0
:101EF00027E04091A00267E370E082ED92E00E944B
:101F0000BB19809111010C943C0F0F93CF93DF9379
:101F100000D01F92CDB7DEB78091950290910B0152
:101F200089130AC0815080930B01809196028C5FC7
:101F30008093960210929502809114010091A10263
:101F400024E64091960262EA72E081111DC0CE0142
:101F500001960E944A1B8091950290E0E5E3F0E033
:101F6000E81BF90B9F01220F331FE20FF31FEE5204
:101F7000FD4F298120832A8121832B812283E6E35F
:101F8000F0E0E81BF90B18C0CE0101960E944A1B35
:101F9000E0919502F0E0DF01AA0FBB1FAE0FBF1F5B
:101FA000AE52BD4F89818C938A8111968C93119783
:101FB0008B8112968C933197CF01880F991FE80F70
:101FC000F91FEE52FD4F108211821282809195020C
:101FD0008F5F8093950280910B01811105C0109253
:101FE000960287E380930B010F900F900F90DF9183
:101FF000CF910F9108951F93CF93DF93C2EDD2E05D
:102000001FEF23E030E040E050E060E070E0CB0103
:102010000E945825613019F41883198204C018826F
:10202000623019F419831A8202C019821A838EE46D
:1020300094E00E948409239683E0C737D80709F704
:10204000DF91CF911F910895FF920F931F93CF932C
:10205000DF9300D01F92CDB7DEB702ED12E0FF2470
:10206000FA948091260291E0980F9093260289833A
:10207000FA82FB82B801CE0101960E94BC1D8EE45B
:1020800094E00E9484090E94200F6AE070E080E0E2
:1020900090E00E940A2480919402882319F0109203
:1020A000940230C00D5F1F4F83E007371807C9F651
:1020B00000E010E0FF24FA948091260291E0980F4E
:1020C000909326028983FA82FB82B8016C587C4F78
:1020D000CE0101960E94BC1D8EE494E00E9484090A
:1020E0000E94200F6AE070E080E090E00E940A24E5
:1020F000809194028111D3CF035011090B358FEFDA
:102100001807D1F60F900F900F90DF91CF911F918C
:102110000F91FF9008950F931F93CF93DF9300D0FB
:102120001F92CDB7DEB78091A00289838FEF8B839A
:1021300080EF8A8302ED12E0B801CE0101960E9481
:10214000BC1D0D5F1F4F83E007371807A9F70F90DD
:102150000F900F90DF91CF911F910F910895CF9223
:10216000DF92EF92FF920F931F93CF93DF93CDB740
:10217000DEB729970FB6F894DEBF0FBECDBF9E0124
:102180002C5F3F4FAE014A5F5F4FBE01685F7F4FDC
:102190008BE793E00E94A204888599858A362FEF09
:1021A000920714F580910A01811146C000919D02A9
:1021B00010919E02780184E0E80EF11C60EAC701EC
:1021C0000E948A0860ECC7010E948A08D801ED913C
:1021D000FC910190F081E02DC80109951092140145
:1021E00081E080930A0128C0873991052CF1809104
:1021F0000A01882309F100919D0210919E02780145
:10220000B4E0EB0EF11C61EAC7010E948A0860EBA2
:10221000C7010E948A0868ECC7010E948A08D80199
:10222000ED91FC910190F081E02DC801099581E0CC
:102230008093140110920A0180919902882321F160
:102240000E94D92300910C0110910D0120910E01E3
:1022500030910F01AB01BC01401B510B620B730BA2
:102260008091970290919802A0E0B0E084179507C2
:10227000A607B70748F480919D0290919E020496AC
:102280000E948C0610929902E0919D02F0919E02AC
:10229000938185A9981719F083E0809377038FE8DD
:1022A00093E00E943117892B09F402C18FE893E073
:1022B0000E9408177C018FE893E00E9408178C01A8
:1022C0008FE893E00E940817D82E8FE893E00E94D1
:1022D0000817F701FF273197E930F10508F091C0A1
:1022E000E85CFF4F0C94AF2700931C010E94340B55
:1022F0008091190190911A018D5D944009F081C07F
:1023000080919D0290919E0220911C01FC0125ABC1
:102310000190F081E02D13C000931B0100934E0447
:102320008091190190911A01875D944009F069C06C
:1023300080919B0290919C02DC01ED91FC910190B7
:10234000F081E02D09955DC081E0081380E0809365
:10235000140157C011270230110551F00330110547
:1023600051F00130110509F04CC0D092150149C05F
:10237000D092160146C0D11004C081E080939A0229
:1023800040C0BFEFDB1205C010929A02D09210013C
:1023900038C0D092100110929A0233C000931201FB
:1023A00030C0009313012DC0009311012AC0011108
:1023B00006C01092990282E08093770322C081E0E8
:1023C000809399020E94D92360930C0170930D01B0
:1023D00080930E0190930F0128EE33E0029FC0011D
:1023E000039F900D1124909398028093970209C047
:1023F0009AE090931C0100938D02D0928C028093FE
:102400008B0266E072E08EE892E00E943E268091A8
:102410001C01843109F4C0C0E0919D02F0919E023C
:10242000638170E07B01E81AF1084AE050E0B701EF
:102430008BE195E00E947D23E0919D02F0919E0248
:1024400081E084ABF7FE1DC000E010E0F194E19460
:10245000F1080E151F0534F0E0919D02F0919E02E7
:1024600014AA9AC080919D0290919E02DC01ED9188
:10247000FC910280F381E02D61E009950F5F1F4F11
:10248000E8CFE114F10441F300E010E080919D02F7
:1024900090919E02DC01ED91FC910280F381E02D90
:1024A00062E009950F5F1F4F0E151F057CF3D4CF17
:1024B00080917703882309F46FC02091190130912E
:1024C0001A012D5D344009F056C0823081F083300E
:1024D000D9F0813039F580919D0290919E02DC0106
:1024E000ED91FC910280F381E02D61E00BC08091C1
:1024F0009D0290919E02DC01ED91FC910280F3819E
:10250000E02D62E009950EC080919D0290919E029F
:10251000DC01ED91FC910280F381E02D63E00995EF
:1025200080939F0280911B0180934E0490919F02A3
:1025300081E098131DC090931C01A0919D02B09161
:102540009E0213968C911397D5968C93D597809174
:10255000190190911A019093180180931701ED9140
:10256000FC9111970190F081E02DCD01099503C0F8
:102570008F5F8431F1F680917703833049F41092B4
:10258000960287E380930B01109295020E94340B10
:102590001092770310929F0280911B01811102C05B
:1025A00060E001C061E087E10E94E624E0911C0147
:1025B0008E2F90E0FC013197E431F10520F4EF5BC0
:1025C000FF4F0C94AF270E94340B60E087E10E941C
:1025D000E62456C00E943F0B53C00E947B0C50C0A3
:1025E0000E948B1042E350E060E070E08EE494E0E3
:1025F0000E940C1D45C00E94241042C00E94780F0A
:102600003FC00E94FB0F3CC080E001C081E00E94FF
:10261000DD0E36C082E0FBCF83E0F9CF84E0F7CF58
:1026200085E0F5CF86E0F3CF87E0F1CF0E94940CF0
:1026300027C00E94CD0E24C00E94DB0C21C00E9446
:10264000130E1EC06BEA76E082EA92E00E946709F0
:1026500081E08093A1020E94850F12C080918B02BD
:1026600090918C0220918D0229839A838B83AE01F5
:102670004F5F5F4F67E370E082ED92E00E94A61922
:1026800080918302811119C00E94D9236093610255
:1026900070936202809363029093640284E190E0FD
:1026A000A0E0B0E08093650290936602A093670279
:1026B000B093680281E0809383020E94D923009145
:1026C0006102109162022091630230916402DC0188
:1026D000CB01801B910BA20BB30B009165021091F3
:1026E0006602209167023091680280179107A20765
:1026F000B30778F00E94D92360936102709362025D
:1027000080936302909364028091A0028F5F809314
:10271000A0028EE494E00E9484096091130170E0AD
:1027200088EE93E00E945A27AB01770F660B770B78
:102730008EE494E00E940C1D29960FB6F894DEBF3B
:102740000FBECDBFDF91CF911F910F91FF90EF9002
:10275000DF90CF9008959F92AF92BF92CF92DF9279
:10276000EF92FF920F931F93CF93DF93FC01C080F2
:10277000D18022B12061B22E92B19F7E92B9628542
:102780008781062F081B802F07837785A281B3815D
:1027900035854485568599249394930E4F5F5F5FEA
:1027A000F680E084C185D385F6011181A12C0A2D24
:1027B0002A2D3A2D3181112788943111380F08F4D0
:1027C0003FEF8195889490FC130F1795889491FCA6
:1027D000130F1795889492FC130F1795889493FC08
:1027E000130F1795889494FC130F1795889495FCF4
:1027F000130F1795889496FC130F1795889497FCE0
:10280000130F17958894032F9110012F860F102F07
:10281000002CB2B800C000C017FF92B93081002769
:10282000889400C0002C92B931113F0D00C0002CDB
:10283000B2B800C000C016FF92B908F43FEFF1949F
:10284000889400C0002C92B940FD030F00C0002CFA
:10285000B2B800C000C015FF92B90795889441FD39
:10286000030F00C0002C92B90795889400C0002C7B
:10287000B2B800C000C014FF92B942FD030F079523
:10288000889400C0002C92B943FD030F00C0002CB7
:10289000B2B800C000C013FF92B90795889444FDF8
:1028A000030F00C0002C92B90795889400C0002C3B
:1028B000B2B800C000C012FF92B945FD030F0795E2
:1028C000889400C0002C92B946FD030F00C0002C74
:1028D000B2B800C000C011FF92B90795889447FDB7
:1028E000030F00C0002C92B90795889400C0002CFB
:1028F000B2B800C000C010FF92B9132F4111102FC1
:10290000FC0E00C0002C92B900C000C0002CB2B870
:1029100000C000C017FF92B932810027889400C020
:10292000002C92B931113E0D00C0002CB2B800C08D
:1029300000C016FF92B908F43FEFE70FF11D00C089
:10294000002C92B950FD030F00C0002CB2B800C09B
:1029500000C015FF92B90795889451FD030F00C080
:10296000002C92B90795889400C0002CB2B800C022
:1029700000C014FF92B952FD030F0795889400C060
:10298000002C92B953FD030F00C0002CB2B800C058
:1029900000C013FF92B90795889454FD030F00C03F
:1029A000002C92B90795889400C0002CB2B800C0E2
:1029B00000C012FF92B955FD030F0795889400C01F
:1029C000002C92B956FD030F00C0002CB2B800C015
:1029D00000C011FF92B90795889457FD030F00C0FE
:1029E000002C92B90795889400C0002CB2B800C0A2
:1029F00000C010FF92B9132F5111102FE19400C0A5
:102A0000002C92B9ED0E00C000C0B2B800C000C0EA
:102A100017FF92B931810027889400C0002C92B929
:102A20003111380F00C0002CB2B800C000C016FF32
:102A300092B908F43FEF8195889400C0002C92B9B8
:102A400090FC030F00C0002CB2B800C000C015FFFE
:102A500092B90795889491FC030F00C0002C92B99D
:102A60000795889400C0002CB2B800C000C014FFC5
:102A700092B992FC030F0795889400C0002C92B97C
:102A800093FC030F00C0002CB2B800C000C013FFBD
:102A900092B90795889494FC030F00C0002C92B95A
:102AA0000795889400C0002CB2B800C000C012FF87
:102AB00092B995FC030F0795889400C0002C92B939
:102AC00096FC030F00C0002CB2B800C000C011FF7C
:102AD00092B90795889497FC030F00C0002C92B917
:102AE0000795889400C0002CB2B800C000C010FF49
:102AF00092B9132F9110102F860F00C0002C92B99D
:102B0000119709F086CEDF91CF911F910F91FF9021
:102B1000EF90DF90CF90BF90AF909F9008950F936C
:102B20001F93CF93DF93EC018B010E94E5232F8548
:102B30003889621B730B6A307105B8F3F894C801C9
:102B40000E94AB13F8014281538120EE31E0DA019B
:102B50000E94C427DC01CB01F4E0B695A7959795B8
:102B60008795FA95D1F720E030E0B901EAE94E9F68
:102B7000612D5E9F600D711D1124860F971FA11D91
:102B8000B11D893EF3E09F07A105B10588F1885E7C
:102B90009340A109B10942E0B695A795979587950D
:102BA0004A95D1F747E0849F212D949F200D311D38
:102BB000112460919B0370E0860F971F820F931F73
:102BC0004091B9055091BA056091BB057091BC0563
:102BD000292F3327420F531F611D711D4093B905E3
:102BE0005093BA056093BB057093BC0580939B031B
:102BF00078940E94E523788B6F87DF91CF911F91A6
:102C00000F910895FC01118A108A08950F931F9364
:102C1000CF93DF93209169022F5F322F377030936B
:102C2000690220FF02C020E801C020E031FD2064DD
:102C3000347009F02062205FFC01EC01239600E073
:102C400011E06485662331F070E0C8010E945A27C4
:102C50006F5F01C060E06187322F369F030E30E066
:102C6000311D1124311102C0168202C03150368349
:102C7000662311F0615061873196CE17DF0709F79F
:102C8000DF91CF911F910F910895EF92FF920F93D3
:102C90001F93CF93DF93CDB7DEB762970FB6F8944B
:102CA000DEBF0FBECDBF8C017A01F901DC011C969D
:102CB0008C917A8369835C834B835E834D8390819F
:102CC0009D8791819E8792819F87813029F4CE01D3
:102CD00001960E94061606C01C861B861A86198657
:102CE00018861F82188AB701CE0101960E9402162B
:102CF000D801ED91FC910484F585E02DBE016F5F54
:102D00007F4FC801099562960FB6F894DEBF0FBEDB
:102D1000CDBFDF91CF911F910F91FF90EF9008955C
:102D2000EF92FF920F931F93CF93DF93CDB7DEB750
:102D300062970FB6F894DEBF0FBECDBF8C017A014B
:102D4000F901DC011C968C917A8369835C834B8347
:102D50005E834D8390819D8791819E8792819F871D
:102D6000813029F4CE0101960E94061606C01C8609
:102D70001B861A86198618861F8283E0888BB70106
:102D8000CE0101960E940216D801ED91FC910484B7
:102D9000F585E02DBE016F5F7F4FC80109956296F2
:102DA0000FB6F894DEBF0FBECDBFDF91CF911F915C
:102DB0000F91FF90EF900895EFE8F3E013821282F5
:102DC00088EE93E0A0E0B0E084839583A683B78388
:102DD00084EE91E0918380838BE793E00E9404046A
:102DE0004DE16EE188E793E00E94960866E072E0AC
:102DF0008EE892E00C9429268EE892E00E94BB2592
:102E000084EE91E09093900380938F030C947D194E
:102E10008091360490913504891769F09F5F903551
:102E200008F090E0E92FF0E0EB51FC4F80819093A7
:102E3000350490E008958FEF9FEF08958091360458
:102E4000E09135048E1751F0EF5FE03508F0E0E0D7
:102E5000F0E0EB51FC4F808190E008958FEF9FEF01
:102E600008955091360440913504852F90E0242F29
:102E700030E0541710F4805B9F4F821B930B089532
:102E80009B01AC01213668E136074105510530F45C
:102E900010926F001092800081E828C0DA01C90109
:102EA00073E0B695A795979587957A95D1F7813672
:102EB00068E19607A105B10550F410926F001092D9
:102EC000800022E8209381009C01AD0111C0232FD6
:102ED000342F452F5527213688E138074105510504
:102EE000C0F510926F001092800084E880938100FA
:102EF00030933F0420933E04A5E2B0E00E94CB272C
:102F0000DC01CB0122E0B695A795979587952A9588
:102F1000D1F7909338048093370462E08EE00E94EA
:102F2000AA2461E08DE00E94E62461E08DE00E9429
:102F3000AA2410923D041092360410923504109287
:102F4000E4031092E1031092E00380E286BB8093D9
:102F50006F0008959091E1039F5F943408F090E032
:102F60002091E0032917E1F32FB7F8943091E4039F
:102F7000332341F0E92FF0E0E456FC4F8083909337
:102F8000E1031DC091E09093E4038093E30310926A
:102F9000E20382E086BB80916F00826080936F00C5
:102FA000809180008F7B8068809380008091840076
:102FB00090918500409690938900809388002FBF60
:102FC0000895862F0E94AA1781E090E008951F922D
:102FD0000F920FB60F9211242F933F934F935F934D
:102FE0006F937F938F939F93EF93FF938091E4036D
:102FF0006091E303209188003091890040913E0464
:1030000050913F049091E2038A30F8F4240F351F69
:10301000893019F0762F717001C071E066958F5F6D
:10302000791791F390918000772311F0906C02C092
:103030009F7B906890938000309389002093880054
:103040007093E2036093E3034AC09091E103E0913F
:10305000E0039E1319C08A3051F48BE08093E4039F
:10306000240F351F30938900209388003AC01092B6
:10307000E403809180008F738093800080916F00C3
:103080008D7F80936F002DC0EF5FE43408F0E0E0A7
:10309000E093E003F0E0E456FC4F90819093E3036B
:1030A0001092E203909180009F7B90689093800043
:1030B0008A3059F480913E0490913F04280F391FC3
:1030C000309389002093880009C0809184009091FA
:1030D00085004096909389008093880081E08093DA
:1030E000E403FF91EF919F918F917F916F915F9199
:1030F0004F913F912F910F900FBE0F901F901895F9
:103100008091E4038111FCCF08950C9480181F92E4
:103110000F920FB60F9211242F933F934F935F930B
:103120006F937F938F939F93AF93BF93EF93FF938F
:10313000809186009091870040913B04209181000E
:10314000442331F02F7B2093810010923B0406C072
:1031500020642093810020E820933B0430913D04BB
:10316000311125C041116CC02091370430913804D1
:10317000280F391F30938B0020938A0024E026BB50
:1031800020916F00246020936F0020913E043091C5
:103190003F04820F931F36952795820F931F9093BC
:1031A0003A048093390481E080933D0449C0409102
:1031B000390450913A0460913E0470913F04DB0160
:1031C000A095B095E0913B0420913C04841B950BA5
:1031D000A817B90768F126952E2B460F571F3F5F9A
:1031E000861B970B3930A0F320933C0480916F002D
:1031F0008B7F80936F00809136048F5F803508F05D
:1032000080E090913504891749F0E82FF0E0909123
:103210003C04EB51FC4F90838093360480918100F5
:103220008F7B8093810010923B0410923D0408C074
:1032300020933C0450933A044093390430933D0466
:10324000FF91EF91BF91AF919F918F917F916F917E
:103250005F914F913F912F910F900FBE0F901F9054
:1032600018951F920F920FB60F9211242F938F93E0
:103270009F93EF93FF9380916F008B7F80936F00FC
:10328000809181008F7B8093810080913D0420910B
:103290003B04205890913C04893020F49695922B61
:1032A0008F5FFACF90933C04809136048F5F803516
:1032B00008F080E020913504821739F0E82FF0E023
:1032C000EB51FC4F90838093360410923D04809123
:1032D00081008F7B8093810010923B04FF91EF91DE
:1032E0009F918F912F910F900FBE0F901F90189567
:1032F00080913504809336040895CF93DF93CFE611
:10330000D0E088818B7F888388818F7D88830E942D
:1033100078190E94801888818D7F8883DF91CF91F2
:103320000895FC012081269F020E20E0211D2083AC
:103330002181269F020E20E0211D21832281269FCC
:10334000020E20E0211D228311240895DA01FC01E0
:1033500080E090E0861797076CF42C9120831196FB
:103360002C911197218312962C911297228301960A
:103370003396F0CF0895AF92BF92DF92EF92FF9213
:103380000F931F93CF93DF9300D01F92CDB7DEB77B
:103390005B01D22E49832FEF2B8320EF2A838C01F0
:1033A000E12CF12CEA14FB0474F4B801CE0101966F
:1033B0000E94BC1D89818D0D89838FEFE81AF80A60
:1033C0000D5F1F4FEFCF0F900F900F90DF91CF91B8
:1033D0001F910F91FF90EF90DF90BF90AF900895F5
:1033E0005F926F927F928F929F92AF92BF92CF9295
:1033F000DF92EF92FF920F931F93CF93DF933C01E5
:10340000FB01EA01D80126173707C0F44C91119649
:103410009C91119712968C91129758815C935981C7
:1034200011965C9311975A8112965C931297488378
:1034300099838A838F2FF901262F382FC880D12CAA
:103440008C9190E08C199D099695982F88279795D7
:103450008795E980F12C1196AC901197B12CAE189C
:10346000BF08B694BA2CAA24B794A794CA81D0E016
:1034700012960C9110E00C1B1D0B1695102F0027B7
:1034800017950795A9014E1B5F0B19F0542E452F78
:1034900003C05524539440E0652D742F0E945A2791
:1034A0004B01C501652D742F0E945A275B01C8018D
:1034B000652D742F0E945A27880C991CAA0CBB1CDE
:1034C000660F771FDC2CCC24FE2CEE24DC2FCC27BF
:1034D000DF01AA0FBB1FAE0FBF1FA60DB71D2E1712
:1034E0003F0780F0DC921196FC9211971296DC93C4
:1034F0001297C80CD91CEA0CFB1CC60FD71F3196BB
:103500001396EDCFDF91CF911F910F91FF90EF9028
:10351000DF90CF90BF90AF909F908F907F906F90F3
:103520005F9008952F923F924F925F926F927F9299
:103530008F929F92AF92BF92CF92DF92EF92FF92C3
:103540000F931F93CF93DF9300D000D000D0CDB75F
:10355000DEB73C014B01FA0159016801170123E074
:1035600030E0CB01B9010E9446277B01C401880FDE
:10357000991FB9010E9446272B01D5018C9189839F
:1035800011968C9111978A8312968C918B838081EE
:103590008C8381818D8382818E838E010F5F1F4F8B
:1035A0009701AE014C5F5F4F60E070E0C3010E9485
:1035B000F019F6018081898381818A8382818B83DE
:1035C000D5018C918C8311968C9111978D831296D5
:1035D0008C918E839201AE014C5F5F4FB701C301A6
:1035E0000E94F019F1018081898381818A8382811F
:1035F0008B83D6018C918C8311968C9111978D833E
:1036000012968C918E83940121503109AE014C5F4A
:103610005F4FB201C3010E94F01926960FB6F894CD
:10362000DEBF0FBECDBFDF91CF911F910F91FF90F5
:10363000EF90DF90CF90BF90AF909F908F907F9052
:103640006F905F904F903F902F900895CF92DF92B0
:10365000FF920F931F93CF93DF936B01F42EEC0136
:1036600000E010E00C151D0541F06F2DCE010E9409
:1036700091190F5F1F4F2396F5CFDF91CF911F91C7
:103680000F91FF90DF90CF90089540950C94261BEA
:103690000C94451B0F931F93CF93DF93FC01842F52
:1036A00082958F704F70DB01982F990F980FEB0167
:1036B000C90FD11D442319F031E0011101C030E0E0
:1036C000688159819A81332309F42CC08F3011F01D
:1036D000DE0113964295407F142F10953C91619F17
:1036E000060E60E0611D349F030E30E0311D630F54
:1036F00011963C911197519F050E50E0511D349F3A
:10370000030E30E0311D530F12967C91392F319FFB
:10371000030E30E0311D749F070E70E0711D932F72
:10372000970F11242F3FE1F02223B9F02F5F66237A
:1037300021F0629F060E60E0611D552321F0529F2B
:10374000050E50E0511D992331F0392F329F030EA1
:1037500030E0311D932F112403C090E050E060E071
:10376000608351839283CF01DF91CF911F910F919D
:1037700008958F929F92AF92BF92CF92DF92EF9275
:10378000FF920F931F93CF93DF93EC01188219825E
:103790001A826623C1F1FA0189017C016A0183E082
:1037A000C80ED11C862E912CA12CB12C2191222344
:1037B00011F1D8016C916623F1F0822F90E0A0E026
:1037C000B0E09C01AD012F5F3F4F4F4F5F4F862F01
:1037D00090E0A0E0B0E0BC01CD016F5F7F4F8F4F64
:1037E0009F4F0E942A279B01AC01C501B4010E9492
:1037F0002A27D7018C930F5F1F4FBFEFEB1AFB0AED
:10380000EC15FD0599F6CE01DF91CF911F910F9137
:10381000FF90EF90DF90CF90BF90AF909F908F90F0
:103820000895FC018FEF8083128211821486138623
:103830008FEF9FEFDC0187839087A187B287089580
:10384000CF92DF92EF92FF920F931F93CF93DF936C
:103850002091440430914504A9014F5F5F4F50937C
:1038600045044093440426173707B4F1EC010E9445
:10387000D9238B019C01E0914404F091450488EE2A
:1038800093E0E89FB001E99F700DF89F700D11243F
:10389000072E000C880B990BC0904004D090410477
:1038A000E0904204F0904304A90198012C193D09CD
:1038B0004E095F090E946E273A83298310924504BE
:1038C000109244040E94D9236093400470934104F1
:1038D0008093420490934304DF91CF911F910F9105
:1038E000FF90EF90DF90CF900895AF92BF92CF926C
:1038F000DF92EF92FF920F931F93CF93DF9300D04D
:103900001F92CDB7DEB77C01D62EF701838194815B
:10391000A581B681892B8A2B8B2BD1F00E94E523C0
:1039200000914604109147042091480430914904C5
:10393000DC01CB01801B910BA20BB30BF7010381C0
:1039400014812581368180179107A207B307E8F219
:103950000E94E523609346047093470480934804D3
:1039600090934904D7011B96ED91FC911C973097D9
:1039700051F0D70117964D915D916D917C911A97F9
:103980008D2D0995D82E00914C0410914D040115F0
:10399000110579F1F801C484D70111968D919C919C
:1039A00012978436910508F41486D801ED91FC91A4
:1039B000A280B3809801275F3F4FA8014A5F5F4F05
:1039C0006D2DCE0101960E94B91BF80145855685E3
:1039D000628173819E012F5F3F4FC801F5010995F8
:1039E000D8011C96CC921C9714960D911C9115979A
:1039F000CECF69E170E0C7010E94201C0F900F90AC
:103A00000F90DF91CF911F910F91FF90EF90DF907A
:103A1000CF90BF90AF9008958F929F92AF92BF9238
:103A2000CF92DF92EF92FF92CF93DF93EC016A0186
:103A30007B010E94D9234B015C0161E070E080E0D2
:103A400090E00E940A246881CE010E94751C0E94A9
:103A500074220E94D923DC01CB0188199909AA0993
:103A6000BB098C159D05AE05BF0538F3DF91CF91DD
:103A7000FF90EF90DF90CF90BF90AF909F908F908E
:103A80000895CF93DF93EC014423E1F061157105B4
:103A900071F19B0140E050E060E472E48FE090E05F
:103AA0000E9490278B819C81AD81BE8182179307F4
:103AB000A407B50710F4DA01C9018B839C83AD8399
:103AC000BE8315C06115710571F09B0140E050E0A7
:103AD00060E472E48FE090E00E9490272B833C83A7
:103AE0004D835E8304C01B821C821D821E82DF9177
:103AF000CF910895CF92DF92EF92FF920F931F9391
:103B0000CF93DF938C016B01EA0179011216130642
:103B10001CF07A01C0E0D0E0D801ED91FC91048066
:103B2000F581E02DC8010995CE01880F991FC80FB6
:103B3000D91FCC0DDD1DF801D383C283F686E5863F
:103B40000190F081E02D0284F385E02DC8010995F4
:103B500041E0BC018EE494E00E94411DC801DF9168
:103B6000CF911F910F91FF90EF90DF90CF9008952C
:103B70008EE494E00C94111C1F93DC01FB017C91FA
:103B800011964C91119712961C91972F9F71990F36
:103B9000990F990F35E5292F239F020E20E0211D53
:103BA0001124822F672F6074572F507277FD1FC02A
:103BB00061110AC0511103C0922F909511C025E5E3
:103BC000280F90E08BEA34C051110DC0392F2AEA3A
:103BD000329F030E30E0311D11249BEA931B280F06
:103BE000892F90E025C090E02095982F0FC061119B
:103BF00012C051110DC0392F2AEA329F030E30E056
:103C0000311D11242BEA231B95E5930F80E010C092
:103C1000922F90950CC0511104C025E5280F9BEA06
:103C200004C02AEA280F90E0932F981B822F20E0EF
:103C30004F3F09F427C0442311F1882331F0382F76
:103C4000349F030E30E0311D832F222321F0249F67
:103C5000020E20E0211D992331F0392F349F030EED
:103C600030E0311D932F1124342F3095339F030EF4
:103C700030E0311D1124830F230F930F03C09FEFFA
:103C80002FEF8FEF1F3F09F424C030E0112321F004
:103C9000119F312D09F03F5F3323C1F0882331F0AC
:103CA000482F439F040E40E0411D842F222321F022
:103CB000239F020E20E0211D992331F0492F439FBD
:103CC000040E40E0411D942F112403C090E020E039
:103CD00080E08083218392831F910895FB01DC01A2
:103CE00040FF05C002C001900D9201900D9242501C
:103CF000D0F75040C0F708958617970710F40C943A
:103D00006E1E840F951F640F751FFB01DC0140FFC1
:103D100005C002C002900E9202900E924250D0F75F
:103D20005040C0F708951092C80481E08093C60403
:103D30001092C50461E081E10E94E62461E080E127
:103D40000E94E624E9EBF0E080818E7F8083808111
:103D50008D7F808388E48093B80085E48093BC00E5
:103D60000895413208F043C09091C8049111FCCFEE
:103D700091E09093C8042093C6042FEF20935B0436
:103D80001092A004240F20939F049093C704909155
:103D9000C704880F892B8093C7048091C5048130A4
:103DA00061F41092C5048091C7048093BB00809198
:103DB000BC0083FDF8CF85EC01C085EE8093BC008C
:103DC0008091C8048130E1F38091A004841710F43D
:103DD0004091A004A1EAB4E0962FFB018E2F891B2D
:103DE000841718F48D918193F9CF842F089580E082
:103DF00008950F93413208F04AC09091C804911180
:103E0000FCCF32E03093C8040093C6043FEF3093F8
:103E10005B041092A00440939F04562FA1EAB4E0E3
:103E2000FB013E2F351B341718F431913D93F9CF28
:103E30001092C7043091C704880F832B8093C70466
:103E40008091C504813061F41092C5048091C7044B
:103E50008093BB008091BC0083FDF8CF85EC01C04E
:103E600085EE8093BC00222321F08091C80482302B
:103E7000D1F380915B048F3F79F080915B048032B5
:103E800041F080915B04803331F094E005C091E013
:103E900003C092E001C093E0892F0F9108954091F3
:103EA0007D04262F30E0240F311D21323105DCF452
:103EB0002091C8042430C9F4FC0180E090E086170A
:103EC00058F430917D042191DC01A158BB4FA30F20
:103ED000B11D2C930196F3CF80917D04680F609300
:103EE0007D0480E0089581E0089582E0089585EDE5
:103EF0008093BC008091BC0084FDFCCF1092C8046C
:103F0000089585EC8093BC001092C80408951F9218
:103F10000F920FB60F9211242F933F934F935F93FD
:103F20006F937F938F939F93AF93BF93EF93FF9381
:103F30008091B900887F803609F49EC078F5883278
:103F400009F45DC090F4803109F456C038F4882338
:103F500009F4F5C0883009F44FC0F5C0883109F480
:103F60004EC0803209F45FC0EEC0803409F46AC0EC
:103F700058F4803309F457C0883309F0E4C08093C3
:103F80005B040E94811FDFC0803509F44FC0883573
:103F900009F45DC0883409F0D6C0D3C0883909F46B
:103FA000C4C0A8F4883709F467C038F4883609F427
:103FB00063C0803709F460C0C6C0883809F4B5C052
:103FC000803909F45FC0803809F0BDC05BC0803B18
:103FD00009F483C038F4803A09F466C0883A09F4D9
:103FE0007CC0B1C0803C09F4A4C0883C09F4A1C0E5
:103FF000883B09F487C0A7C08091C70410C0909186
:10400000A00480919F04981770F5E091A00481E0CE
:104010008E0F8093A004F0E0EF55FB4F80818093DA
:10402000BB0085EC83C080935B048BC0E091A0044F
:1040300081E08E0F8093A0048091BB00F0E0EF55EB
:10404000FB4F80839091A00480919F046BC0E0910E
:10405000A00481E08E0F8093A0048091BB00F0E06B
:10406000EF55FB4F80838091C60481116AC081E0C7
:104070008093C50484EA5EC083E08093C8041092F4
:104080005C04CFCF80915C04803208F04EC0E09198
:104090005C0481E08E0F80935C048091BB00F0E0B3
:1040A000E35AFB4F8083BDCF0E94811F80915C0447
:1040B000803230F4E0915C04F0E0E35AFB4F108270
:1040C00060915C0470E0E091C104F091C2048DE560
:1040D00094E0099510925C0436C084E08093C80493
:1040E00010927E0410927D04E091C304F091C40408
:1040F000099580917D04811105C081E080937D0444
:1041000010927F04E0917E0481E08E0F80937E0404
:10411000F0E0E158FB4F80818093BB0090917E04DA
:1041200080917D04981708F47CCF85E88093BC00CB
:104130000AC085EC8093BC001092C80404C01092A1
:104140005B040E94771FFF91EF91BF91AF919F9108
:104150008F917F916F915F914F913F912F910F9030
:104160000FBE0F901F9018958091F90490E0209158
:10417000FA04821B910908959091FA048091F90440
:10418000981750F4E92FF0E0E550FB4F208130E024
:104190009F5F9093FA0402C02FEF3FEFC90108958B
:1041A000E091FA048091F904E81730F4F0E0E5506A
:1041B000FB4F808190E008958FEF9FEF0895089561
:1041C000CF92DF92EF92FF920F931F93CF93DF93E3
:1041D0007C01CB018A012091D504222389F0EB01D7
:1041E0006B01C40ED51ECC15DD0569F06991D701B0
:1041F000ED91FC910190F081E02DC7010995F3CF7D
:10420000642F0E944F1FC801DF91CF911F910F9122
:10421000FF90EF90DF90CF900895CF93DF931F92A0
:10422000CDB7DEB769832091D5042223D1F0209148
:10423000D604203240F021E030E0FC0133832283B9
:1042400080E090E015C08091D704E82FF0E0E852BC
:10425000FB4F998190838F5F8093D7048093D6041E
:1042600005C061E0CE0101960E944F1F81E090E001
:104270000F90DF91CF910895FC011382128288EE96
:1042800093E0A0E0B0E084839583A683B78386EFB4
:1042900091E09183808308951092FA041092F904BA
:1042A0001092D7041092D6040C94931E81E0809350
:1042B000D5046093F8041092D7041092D6040895A0
:1042C0000C9456210F93062F21E04091D60468EDFF
:1042D00074E08091F8040E94F91E1092D7041092A5
:1042E000D6041092D5040F9108954F925F926F9269
:1042F0007F92AF92BF92CF92EF92FF920F931F9354
:10430000CF93DF935C01F62ED42F28013901EE20E4
:1043100021F10E945621CE2DC43008F0C3E0C150D7
:10432000C0F028E0C29FC0011124A301920104C083
:1043300056954795379527958A95D2F7CA01B901C1
:10434000D501ED91FC910190F081E02DC501099519
:10435000E6CF60E0C5010E9462214D2FD13208F006
:1043600040E22C2D6BEF74E08F2D0E94B11E109255
:10437000FA048093F904DF91CF911F910F91FF9080
:10438000EF90CF90BF90AF907F906F905F904F90E5
:104390000895CF92EF920F931F93C22EE12C00E06D
:1043A00010E098010E9475211F910F91EF90CF901E
:1043B000089521E00C94C92161E00C94622189ECFC
:1043C00094E00C943C210E945F2A1F920F920FB63A
:1043D0000F9211242F938F939F93EF93FF93E0916C
:1043E0002B05F0912C058081E0913105F09132058B
:1043F00082FD12C09081809134058F5F8F73209170
:104400003505821751F0E0913405F0E0E55EFA4F92
:10441000958F8093340501C08081FF91EF919F912A
:104420008F912F910F900FBE0F901F9018951F9294
:104430000F920FB60F9211242F933F934F935F93D8
:104440006F937F938F939F93AF93BF93EF93FF935C
:104450008BE195E00E94A026FF91EF91BF91AF9173
:104460009F918F917F916F915F914F913F912F918C
:104470000F900FBE0F901F9018958BE195E00E9452
:10448000552621E0892B09F420E0822F0895EBE1E5
:10449000F5E01382128288EE93E0A0E0B0E084831E
:1044A0009583A683B78387E192E09183808385EC2F
:1044B00090E09587848784EC90E09787868780ECEE
:1044C00090E0918B808B81EC90E0938B828B82ECDF
:1044D00090E0958B848B86EC90E0978B868B118E89
:1044E000128E138E148E0895089508950E94462406
:1044F0000E9475220E94210AC2E9D6E20E94AF10F2
:104500002097E1F30E949226F9CF0C94D6270C94C1
:104510006E28CF92DF92EF92FF920F931F93CF936B
:10452000DF936C017A018B01C0E0D0E0CE15DF058E
:1045300081F0D8016D918D01D601ED91FC91019032
:10454000F081E02DC6010995892B11F02196EECF5F
:104550007E01C701DF91CF911F910F91FF90EF90E6
:10456000DF90CF9008956115710579F0FB010190FE
:104570000020E9F73197AF01461B570BDC01ED91A5
:10458000FC910280F381E02D099480E090E0089591
:10459000DC01ED91FC910190F081E02D099464E043
:1045A00072E00C94B3220F931F93CF93DF93EC012F
:1045B0000E94B3228C01CE010E94CF22800F911F56
:1045C000DF91CF911F910F9108958F929F92AF929B
:1045D000BF92EF92FF920F931F93CF93DF93CDB7CC
:1045E000DEB7A1970FB6F894DEBF0FBECDBF7C013A
:1045F000FA01CB0119A2223008F42AE08E010F5DE6
:104600001F4F822E912CA12CB12CBF01A50194012A
:104610000E946E27F901CA01015011096A3010F495
:10462000605D01C0695CD8016C93232B242B252B82
:1046300061F7B801C7010E94B322A1960FB6F894A2
:10464000DEBF0FBECDBFDF91CF911F910F91FF90C5
:10465000EF90BF90AF909F908F900895CF92DF9290
:10466000EF92FF920F931F93CF93DF9321153105A4
:1046700081F4DC01ED91FC910190F081E02D642F3B
:10468000DF91CF911F910F91FF90EF90DF90CF902E
:1046900009942A30310501F577FF1DC06A017B01BD
:1046A000EC016DE20E94C8228C0144275527BA0113
:1046B0004C195D096E097F092AE0CE010E94E522AE
:1046C000800F911FDF91CF911F910F91FF90EF907D
:1046D000DF90CF9008952AE0DF91CF911F910F9145
:1046E000FF90EF90DF90CF900C94E5229A01AB0100
:1046F000770F660B770B0C942E230F931F93CF939A
:10470000DF93EC010E9476238C01CE010E94CF2220
:10471000800F911FDF91CF911F910F9108951F92EC
:104720000F920FB60F9211242F933F938F939F9365
:10473000AF93BF938091B9059091BA05A091BB0545
:10474000B091BC053091B80523E0230F2D3720F43C
:104750000196A11DB11D05C026E8230F0296A11DDB
:10476000B11D2093B8058093B9059093BA05A09325
:10477000BB05B093BC058091BD059091BE05A0918D
:10478000BF05B091C0050196A11DB11D8093BD0567
:104790009093BE05A093BF05B093C005BF91AF91A4
:1047A0009F918F913F912F910F900FBE0F901F906F
:1047B00018952FB7F8946091B9057091BA0580915A
:1047C000BB059091BC052FBF08953FB7F894809129
:1047D000BD059091BE05A091BF05B091C00526B55D
:1047E000A89B05C02F3F19F00196A11DB11D3FBF29
:1047F000BA2FA92F982F8827820F911DA11DB11DB7
:10480000BC01CD0142E0660F771F881F991F4A95B2
:10481000D1F708958F929F92AF92BF92CF92DF927D
:10482000EF92FF926B017C010E94E5234B015C013A
:10483000C114D104E104F10401F10E9474220E9428
:10484000E523DC01CB0188199909AA09BB09883E37
:104850009340A105B10560F321E0C21AD108E10837
:10486000F10888EE880E83E0981EA11CB11CC114CB
:10487000D104E104F10419F7DBCFFF90EF90DF9052
:10488000CF90BF90AF909F908F900895789484B50B
:10489000826084BD84B5816084BD85B5826085BD3C
:1048A00085B5816085BDEEE6F0E080818160808322
:1048B000E1E8F0E010828081826080838081816005
:1048C0008083E0E8F0E0808181608083E1EBF0E0CC
:1048D000808184608083E0EBF0E080818160808370
:1048E000EAE7F0E080818460808380818260808359
:1048F0008081816080838081806880831092C10084
:104900000895833081F028F4813099F08230A1F04D
:1049100008958730A9F08830B9F08430D1F48091BF
:1049200080008F7D03C0809180008F77809380000E
:10493000089584B58F7702C084B58F7D84BD0895B6
:104940008091B0008F7703C08091B0008F7D8093FD
:10495000B0000895CF93DF9390E0FC01E55BF84F42
:104960002491FC01E559F84F8491882361F190E08E
:10497000880F991FFC01E156F84FC591D491FC01B5
:10498000EB56F84FA591B491611109C09FB7F89407
:104990008881209582238883EC912E230BC062307E
:1049A00061F49FB7F8948881322F309583238883F0
:1049B000EC912E2B2C939FBF06C08FB7F894E88103
:1049C0002E2B28838FBFDF91CF9108951F93CF9314
:1049D000DF93282F30E0F901E55DF84F8491F9016C
:1049E000E55BF84FD491F901E559F84FC491CC2318
:1049F000C1F0162F81110E948124EC2FF0E0EE0F00
:104A0000FF1FEB56F84FA591B4919FB7F894111181
:104A100004C08C91D095D82302C0EC91DE2BDC939E
:104A20009FBFDF91CF911F910895CF93DF93282FE0
:104A300030E0F901E55DF84F8491F901E55BF84F4D
:104A4000D491F901E559F84FC491CC2391F081112B
:104A50000E948124EC2FF0E0EE0FFF1FE557F84F86
:104A6000A591B491EC91ED2381E090E021F480E0F8
:104A700002C080E090E0DF91CF910895CF92DF9265
:104A8000EF92FF92611571058105910549F06B0167
:104A90007C010E944229A70196010E94902703C031
:104AA00060E070E0CB01FF90EF90DF90CF90089531
:104AB000CF92DF92EF92FF920F931F9362177307CB
:104AC0008407950784F489019A016B017C01C9016F
:104AD000B8016C197D098E099F090E943E256C0D55
:104AE0007D1D8E1D9F1D1F910F91FF90EF90DF90F8
:104AF000CF9008954F925F926F927F92AF92BF9244
:104B0000CF92DF92EF92FF920F931F93CF93DF9399
:104B1000CDB7DEB729013A019B01AC012419350953
:104B20004609570989899A89AB89BC89BC01CD019D
:104B30006A197B098C099D090E942A27A8019701FF
:104B400024193509460957090E949027CA01B9015D
:104B50006A0D7B1D8C1D9D1DDF91CF911F910F91C3
:104B6000FF90EF90DF90CF90BF90AF907F906F90CD
:104B70005F904F900895FC01808191810C946E2884
:104B8000CF93DF93EC0188819981009711F00E9407
:104B90006E28198218821D821C821B821A82DF9164
:104BA000CF9108950F931F93CF93DF93EC018B0167
:104BB0006F5F7F4F888199810E949929009731F01A
:104BC000998388831B830A8381E001C080E0DF91A1
:104BD000CF911F910F910895CF93DF93EC018881BE
:104BE0009981892B29F08A819B818617970760F428
:104BF000CE010E94D225882341F08C819D81892B92
:104C000019F4E881F981108281E0DF91CF91089554
:104C1000EF92FF920F931F93CF93DF93EC017B01F1
:104C20008A01BA010E94EC25811104C0CE010E94C4
:104C3000C02507C01D830C83B701888199810E941C
:104C4000912ACE01DF91CF911F910F91FF90EF90AC
:104C50000895FC011182108213821282158214823F
:104C60006115710551F0FB0101900020E9F73197C2
:104C7000AF01461B570B0C9408260895CF93DF9382
:104C8000EC016115710559F0FB0101900020E9F775
:104C90003197AF01461B570B0E94082602C00E94A5
:104CA000C025CE01DF91CF910895FC01918D228D19
:104CB000892F90E0805C9F4F821B91098F73992709
:104CC0000895FC01918D828D981731F0828DE80F47
:104CD000F11D858D90E008958FEF9FEF0895FC0101
:104CE000918D828D981761F0828DDF01A80FB11D23
:104CF0005D968C91928D9F5F9F73928F90E0089547
:104D00008FEF9FEF0895FC01538D448D252F30E0E8
:104D1000842F90E0821B930B541710F0CF960895C8
:104D2000019708958DE392E2892B49F080E090E0AD
:104D3000892B29F00E943D2281110C9400000895D6
:104D4000FC01848DDF01A80FB11DA35ABF4F2C9128
:104D5000848D90E001968F739927848FA689B789F7
:104D60002C93A089B1898C9180648C93938D848DD0
:104D7000981306C00288F389E02D80818F7D80839F
:104D80000895EF92FF920F931F93CF93DF93EC015F
:104D900081E0888F9B8D8C8D981305C0E889F989F7
:104DA000808185FD24C0F62E0B8D10E00F5F1F4F14
:104DB0000F731127E02E8C8DE8120CC00FB607FC84
:104DC000FACFE889F989808185FFF5CFCE010E946D
:104DD000A026F1CF8B8DFE01E80FF11DE35AFF4FA6
:104DE000F0820B8FEA89FB898081806207C0EE899F
:104DF000FF896083E889F98980818064808381E00C
:104E000090E0DF91CF911F910F91FF90EF90089567
:104E1000CF93DF93EC01888D8823C9F0EA89FB8961
:104E2000808185FD05C0A889B9898C9186FD0FC058
:104E30000FB607FCF5CF808185FFF2CFA889B9892D
:104E40008C9185FFEDCFCE010E94A026E7CFDF91A8
:104E5000CF910895DB018F939F930E94CB27BF9141
:104E6000AF91A29F800D911DA39F900DB29F900DB9
:104E700011240895991B79E004C0991F961708F032
:104E8000961B881F7A95C9F780950895AA1BBB1BAE
:104E900051E107C0AA1FBB1FA617B70710F0A61B3A
:104EA000B70B881F991F5A95A9F780959095BC015B
:104EB000CD01089597FB072E16F4009407D077FDD7
:104EC00009D00E94462707FC05D03EF490958195B5
:104ED0009F4F0895709561957F4F0895A1E21A2E16
:104EE000AA1BBB1BFD010DC0AA1FBB1FEE1FFF1F8E
:104EF000A217B307E407F50720F0A21BB30BE40BDE
:104F0000F50B661F771F881F991F1A9469F7609524
:104F10007095809590959B01AC01BD01CF010895DE
:104F2000052E97FB1EF400940E94A72757FD07D07B
:104F30000E946E2707FC03D04EF40C94A7275095CF
:104F40004095309521953F4F4F4F5F4F0895909575
:104F50008095709561957F4F8F4F9F4F0895EE0F0D
:104F6000FF1F0590F491E02D0994A29FB001B39F1B
:104F7000C001A39F700D811D1124911DB29F700D62
:104F8000811D1124911D08950E94B527B7FF089532
:104F9000821B930B08950E94B527A59F900DB49F87
:104FA000900DA49F800D911D112408950F931F93C0
:104FB000CF93DF938230910510F482E090E0E0918E
:104FC000C305F091C40520E030E0A0E0B0E03097E8
:104FD00019F1408151810281138148175907C8F0A6
:104FE0008417950769F4109731F012960C93129775
:104FF00013961C9327C00093C3051093C40522C0C9
:105000002115310519F04217530718F49A01BD0113
:10501000EF01DF01F801DBCF21153105F9F0281B85
:10502000390B2430310580F48A819B81611571052B
:1050300021F0FB019383828304C09093C405809385
:10504000C305FE01329644C0FE01E20FF31F8193B7
:10505000919322503109398328833AC02091C105A8
:105060003091C205232B41F42091020130910301BC
:105070003093C2052093C1052091000130910101B8
:105080002115310541F42DB73EB7409104015091EF
:105090000501241B350BE091C105F091C205E21713
:1050A000F307A0F42E1B3F0B2817390778F0AC014B
:1050B0004E5F5F4F2417350748F04E0F5F1F509328
:1050C000C2054093C1058193919302C0E0E0F0E0F6
:1050D000CF01DF91CF911F910F910895CF93DF936F
:1050E000009709F481C0FC01329713821282A091CB
:1050F000C305B091C405109781F420813181820FDE
:10510000931F2091C1053091C2052817390751F529
:10511000F093C205E093C10567C0ED0120E030E0E7
:10512000CE17DF0740F44A815B819E01411551058E
:10513000F1F0EA01F5CFD383C28340815181840F1E
:10514000951FC817D90759F488819981840F951F35
:105150000296918380838A819B8193838283211528
:10516000310529F4F093C405E093C3053DC0E9017E
:10517000FB83EA8349915991C40FD51FEC17FD07B2
:1051800061F480819181840F951F0296E9019983D2
:105190008883828193819B838A83E0E0F0E012968A
:1051A0008D919C911397009719F0FD01DC01F7CFC9
:1051B0008D919C9111979D012E5F3F4F820F931F00
:1051C0002091C1053091C2052817390769F430973D
:1051D00029F41092C4051092C30502C013821282F2
:1051E000B093C205A093C105DF91CF9108958F922E
:1051F0009F92AF92BF92CF92DF92EF92FF92CF93A6
:10520000DF93EC01688179818A819B816115710549
:105210008105910521F464E279ED8BE597E02DE1BC
:1052200033EF41E050E00E94902749015A019B0171
:10523000AC01A7EAB1E40E94CB276B017C01ACEE84
:10524000B4EFA50194010E949B2ADC01CB018C0DD7
:105250009D1DAE1DBF1DB7FF03C00197A109B0483A
:1052600088839983AA83BB83BC01CD019F77DF919B
:10527000CF91FF90EF90DF90CF90BF90AF909F9035
:105280008F9008958F929F92AF92BF92CF92DF92AC
:10529000EF92FF92609106017091070180910801E1
:1052A00090910901611571058105910521F464E270
:1052B00079ED8BE597E02DE133EF41E050E00E947E
:1052C000902749015A019B01AC01A7EAB1E40E9471
:1052D000CB276B017C01ACEEB4EFA50194010E94D9
:1052E0009B2ADC01CB018C0D9D1DAE1DBF1DB7FFA0
:1052F00003C00197A109B04880930601909307016C
:10530000A0930801B0930901BC01CD019F77FF90E4
:10531000EF90DF90CF90BF90AF909F908F900895C7
:10532000609306017093070180930801909309012F
:105330000895A0E0B0E0EFE9F9E20C94A42AEC01B2
:10534000009721F4CB010E94D627B4C0FC01E60FE0
:10535000F71F9C0122503109E217F30708F4A8C097
:10536000D9010D911C91119706171707B0F0053060
:10537000110508F49BC0C80104978617970708F425
:1053800095C002501109061B170B019311936D93E1
:105390007C93CF010E946E2889C05B01A01AB10ADC
:1053A0004C01800E911EA091C305B091C405612CE3
:1053B000712CE12CF12C109709F446C08D919C9131
:1053C0001197A815B905B1F56C0142E0C40ED11CC6
:1053D000CA14DB0478F14C018A189B08640142E08E
:1053E000C40ED11C1296BC9012971396AC91B5E0E6
:1053F000CB16D10440F0B282A38391828082D9017E
:105400006D937C9309C00E5F1F4F800F911FF901B0
:1054100091838083EB2DFA2FE114F10431F0D70151
:105420001396FC93EE93129741C0F093C405E0935A
:10543000C3053CC06816790608F43C017D0112964C
:105440000D90BC91A02DB7CF8091C1059091C20560
:1054500088169906E1F466167706C8F48091000173
:1054600090910101009741F48DB79EB740910401DE
:1054700050910501841B950BE817F907C8F4F093C8
:10548000C205E093C105F901718360830FC0CB01B0
:105490000E94D6277C01009759F0A801BE010E9406
:1054A0006B2ACE010E946E28C70104C0CE0102C043
:1054B00080E090E0CDB7DEB7EEE00C94C02A81E04A
:1054C00090E0F8940C94D72AFB01DC0105900D9232
:1054D0000020E1F70895FB01DC0102C001900D926C
:1054E00041505040D8F708956817790768F4FB01D8
:1054F000DC01E40FF51FA40FB51F02C002900E924D
:1055000041505040D8F708950C946B2AFB01DC0100
:105510000D900020E9F7119701900D920020E1F71E
:105520000895FB01DC0101900D920020E1F7089540
:10553000B7FF0C94CB270E94CB27821B930B0895B7
:105540002F923F924F925F926F927F928F929F9293
:10555000AF92BF92CF92DF92EF92FF920F931F9381
:10556000CF93DF93CDB7DEB7CA1BDB0B0FB6F89432
:10557000DEBF0FBECDBF09942A88398848885F8472
:105580006E847D848C849B84AA84B984C884DF80E3
:10559000EE80FD800C811B81AA81B981CE0FD11DC7
:1055A0000FB6F894DEBF0FBECDBFED01089513E036
:1055B000C9EDD3E004C0FE010E94AF272196CA3D89
:0855C000D107C9F7F894FFCFF1
:1055C8000000C50520000100000001378813000015
:1055D800FF5003FF015078DD04AB05370139053E64
:1055E80000200023006000204C494748544E494E93
:1055F80047002020205354414646002020202043C5
:105608006F70797269676874202843290020202008
:105618004A6572656D79205A6163686172696100D3
:10562800000000003705CF04CE0409050000000083
:105638001607E10617061A06000204000300011007
:105648000302000003020100060004000605002012
:10565800060504004C49474854494E4720535441D5
:1056680046460000003100F9183000FB302C001CC1
:10567800472600825A1F006D6A170041760E00897E
:105688007D0400000000E321E32100000000000089
:105698000000451690164D09260922094A098F155A
:1056A80000000000E117892217068518311708172E
:1056B8001E17000000000D21E0201706DF20B4208F
:1056C800BC20D0200D0A006E616E00696E66006F06
:1056D80076660000000000C1268922832608275527
:0656E800266F266126007A
:00000001FF
